:020000040800F2
:1000000000000520713C0008BD3B0008BF3B000814
:10001000C13B0008C33B0008C53B000800000000CE
:10002000000000000000000000000000C73B0008C6
:10003000C93B000800000000CB3B0008CD3B000896
:10004000C13C0008C13C0008C13C0008C13C00089C
:10005000C13C0008C13C0008C13C0008C13C00088C
:10006000C13C0008C13C0008C13C0008C13C00087C
:10007000C13C0008C13C0008C13C0008C13C00086C
:10008000C13C0008C13C0008C13C0008C13C00085C
:10009000C13C0008C13C0008C13C0008C13C00084C
:1000A000C13C0008C13C0008C13C0008C13C00083C
:1000B000C13C0008C13C0008C13C0008C13C00082C
:1000C000C13C0008C13C0008C13C0008C13C00081C
:1000D000C13C0008C13C0008C13C0008C13C00080C
:1000E000C13C0008C13C0008C13C0008C13C0008FC
:1000F000C13C0008C13C0008C13C0008C13C0008EC
:10010000C13C0008C13C0008C13C0008C13C0008DB
:10011000C13C0008C13C0008C13C0008C13C0008CB
:10012000C13C0008C13C0008C13C0008C13C0008BB
:10013000C13C0008C13C0008C13C0008C13C0008AB
:10014000C13C0008C13C0008C13C0008C13C00089B
:10015000C13C0008C13C0008C13C0008C13C00088B
:10016000C13C0008C13C0008C13C0008C13C00087B
:10017000C13C0008C13C0008C13C00080000000070
:10018000C13C0008C13C0008C13C0008C13C00085B
:10019000C13C0008C13C0008C13C0008C13C00084B
:1001A000D53B0008C13C0008C13C0008C13C000828
:1001B000C13C0008C13C0008C13C0008C13C00082B
:0801C000C13C0008C13C00082D
:1001D00010B5054C237833B9044B13B10448AFF381
:1001E00000800123237010BDA40000200000000047
:1001F0003445000808B5034B1BB103490348AFF36E
:10020000008008BD00000000A80000203445000860
:1002100053B94AB9002908BF00281CBF4FF0FF316D
:100220004FF0FF3000F072B9ADF1080C6DE904CE6B
:1002300000F006F8DDF804E0DDE9022304B07047C1
:100240002DE9F047089E04468846002B4BD18A4290
:10025000154667D9B2FA82F24AB1C2F1200701FA13
:1002600002F320FA07F7954047EA030894404FEA63
:10027000154E230CB8FBFEF71FFA85FC0EFB178802
:1002800043EA084307FB0CF1994209D9EB1807F13F
:10029000FF3080F01B81994240F21881023F2B44CD
:1002A0005B1AA4B2B3FBFEF00EFB103344EA034426
:1002B00000FB0CFCA44509D92C1900F1FF3380F098
:1002C0000781A44540F2048102382C4440EA0740EB
:1002D000A4EB0C0400271EB1D4400023C6E9004360
:1002E0003946BDE8F0878B4209D9002E00F0EB803B
:1002F0000027C6E9000138463946BDE8F087B3FA61
:1003000083F7002F47D18B4202D3824200F2FA805A
:10031000841A61EB030301209846002EE0D0C6E961
:100320000048DDE702B9FFDEB2FA82F2002A40F0AF
:100330008F80491B4FEA154E1FFA85F80127B1FB44
:10034000FEFC230C0EFB1C1143EA014308FB0CF1DD
:10035000994207D9EB180CF1FF3002D2994200F212
:10036000CD808446591AA3B2B1FBFEF00EFB1014E7
:1003700043EA044408FB00F8A04507D92C1900F112
:10038000FF3302D2A04500F2B6801846A4EB080461
:1003900040EA0C409FE7C7F1200CBB4022FA0CFE5C
:1003A0004EEA030E01FA07F420FA0CF521FA0CF3D9
:1003B0004FEA1E482543B3FBF8F92C0C08FB193310
:1003C0001FFA8EFA44EA034309FB0AF49C4202FA3C
:1003D00007F200FA07F10BD91EEB030309F1FF3016
:1003E00080F087809C4240F28480A9F10209734426
:1003F0001B1BADB2B3FBF8F008FB103345EA034416
:1004000000FB0AFAA24508D91EEB040400F1FF33F1
:100410006BD2A24569D90238744440EA0940A0FB76
:100420000289A4EB0A044C45C2464B4654D351D032
:10043000002E69D0B1EB0A0564EB030404FA0CFC4E
:10044000FD40FC404CEA0505C6E90054002747E79B
:10045000C2F1200320FA03F7954001FA02F021FAD5
:1004600003F34FEA154E3843010CB3FBFEF71FFAB6
:1004700085F80EFB173341EA034107FB08F38B4273
:1004800004FA02F407D9691807F1FF3C2FD28B4216
:100490002DD9023F2944CB1A81B2B3FBFEF00EFBEB
:1004A000103341EA034100FB08F38B4207D9691876
:1004B00000F1FF3C17D28B4215D902382944C91AE2
:1004C00040EA07473BE73746304609E70746E7E695
:1004D0001846FBE64145ABD2B8EB020A69EB0E02C7
:1004E00001381346A4E76046E9E7184695E76746F2
:1004F000D1E781467CE702382C4447E7ACF1020C97
:100500002B442FE7384608E73746E9E6704700BF37
:1005100001F0FF01102A2BDB10F0070F08D010F8B4
:10052000013B013A8B422DD010F0070F42B3F6D1B8
:10053000F0B441EA012141EA014122F007047FF0D1
:1005400000070023F0E80256083C85EA010586EA28
:10055000010685FA47F5A3FA87F586FA47F6A5FA64
:1005600087F68EB9EED1F0BC01F0FF0102F0070270
:1005700032B110F8013B013A83EA010313B1F8D11B
:100580000020704701387047002D06BF35460338FC
:10059000073815F0010F07D1013015F4807F02BF35
:1005A000013015F4C03F0130F0BC0138704700BF86
:1005B0007047002070477047014B1878704700BFA4
:1005C000C000002008B5FFF7F7FF00B108BD00F03C
:1005D00087FA024B01221A70F8E700BFC000002022
:1005E00008B5C82000F0ACFAFFF7ECFF08BD70B505
:1005F00082B0064600248DF80740FFF7E3FF25464A
:1006000001E00134E4B285F00103022C8CBF002329
:1006100003F0010363B1A821F0B200F07BFA8DF87A
:1006200007009DF80730DBB2512BEAD10125E8E73E
:100630009DF8070002B070BD00B583B000238DF8AF
:1006400007300221C0B200F065FA8DF807009DF86E
:10065000073003F00F038DF807309DF80730DBB249
:10066000052B02D900238DF807309DF80720044B95
:100670005A7000229A709DF8070003B05DF804FBE1
:10068000C00000202DE9F04782B000238DF807302C
:100690004E4DAB786C78A34280F09580092B06D83C
:1006A000DFE803F0530B131B232B333B434B4FF07B
:1006B0000008C146C24643464EE04FF00B084FF0DB
:1006C0000C094FF0090A0A2346E04FF011084FF0D9
:1006D00012094FF00F0A10233EE04FF017084FF0B9
:1006E00018094FF0150A162336E04FF01D084FF099
:1006F0001E094FF01B0A1C232EE04FF023084FF079
:1007000024094FF0210A222326E04FF029084FF058
:100710002A094FF0270A28231EE04FF02F084FF038
:1007200030094FF02D0A2E2316E04FF035084FF018
:1007300036094FF0330A34230EE04FF03B084FF0F8
:100740003C094FF0390A3A2306E04FF005084FF014
:1007500006094FF0030A042316460F46C4B2194691
:10076000204600F0D7F98DF807009DF80730174DA7
:10077000AB805146204600F0CDF98DF807009DF87A
:1007800007301B0203F47063AA881343AB803B80DD
:100790004946204600F0BEF98DF807009DF8073065
:1007A000AB804146204600F0B5F98DF807009DF872
:1007B00007301B0203F47063AA881343AB803380B5
:1007C000AB780133AB7002B0BDE8F087C000002009
:1007D00008B50122A421C0B200F08AF908BD08B50D
:1007E0000022A421C0B200F083F908BD08B5FFF7CC
:1007F000F6FF08BD10B582B00C4600238DF8073017
:100800000121C0B200F086F98DF807009DF807308D
:10081000236002B010BD00002DE9F04182B0002439
:100820008DF80740334C64788C425FD9092906D88B
:10083000DFE801F036090E13181D22272C3100279E
:10084000B846394630E00E274FF00D0809212BE05D
:1008500014274FF013080F2126E01A274FF019082C
:10086000152121E020274FF01F081B211CE026271F
:100870004FF02508212117E02C274FF02B082721C6
:1008800012E032274FF031082D210DE038274FF0CC
:100890003708332108E03E274FF03D08392103E0B7
:1008A00008274FF0070803211D461646C4B220460C
:1008B00000F030F98DF807009DF807309B09089A81
:1008C00013604146204600F025F98DF807009DF899
:1008D000073033603946204600F01CF98DF80700D8
:1008E0009DF80720120902F004022A6002B0BDE858
:1008F000F08100BFC000002070B58AB0444B834235
:1009000043D0444C236B43F002032363236B03F077
:1009100002030393039B4FF4807305931223069302
:100920000025079502230893042309933A4E05A94D
:10093000304601F04DFA4FF40073059305A9304697
:1009400001F046FA236C43F400132364236C03F490
:1009500000130493049B236A43F400132362236A65
:1009600023F4001323622A460F211F2000F0D4FE37
:100970001F2000F003FF2A460F21202000F0CCFEAC
:10098000202000F0FBFE0AB070BD224C236B43F028
:1009900080032363236B03F080030193019B802377
:1009A0000593122306930025079502230893042339
:1009B00009931A4E05A9304601F00AFA4FF48073E4
:1009C000059305A9304601F003FA236C43F40003B4
:1009D0002364236C03F400030293029B236A43F411
:1009E00000032362236A23F4000323622A460F21B3
:1009F000482000F091FE482000F0C0FE2A460F215A
:100A0000492000F089FE492000F0B8FEBBE700BF96
:100A1000C80000200038024000040240001C0240D0
:100A200010B5044601F058FEA0B90C4B9C4212D000
:100A30000B4B23600B4B63600023A3600122E26039
:100A400023616361E36123622046FFF755FF20467F
:100A500001F016FC10BD044B2360EBE7C80000203A
:100A60000054004032279140005C004010B504461D
:100A700001F065FC2046FFF7D3FF10BD70B584B0D0
:100A800006460C464FF47A710291BDF8241001918C
:100A900008990091214601F06BFC054610B92846E3
:100AA00004B070BD21463046FFF7E0FFF7E770B5B0
:100AB00084B006460C464FF47A710291BDF82410BA
:100AC000019108990091214601F02AFD054610B9CF
:100AD000284604B070BD21463046FFF7C7FFF7E750
:100AE00008B50248FFF79CFF08BD00BFC800002002
:100AF00010B584B004AC04F8012D012301930094D7
:100B00000A4601460248FFF7B9FF04B010BD00BF16
:100B1000C800002000B585B004AA002302F8013DFA
:100B20000123019300920A4601460448FFF7BFFFE4
:100B30009DF80F0005B05DF804FB00BFC800002061
:100B400008B500F0C3FD08BDF0B583B004460D46FE
:100B500016461F46184B4FF440325A601B6C174A1A
:100B6000342101FB03239B6C022B0CD0124B00227F
:100B70009A601148089BC360114B036000F0DCFFD2
:100B800028B103B0F0BD0C4B02229A60F1E7214678
:100B9000094801F0BBF80028F3D1009733462A46F4
:100BA0000999054800F0F6FF0028EAD10A21024819
:100BB00001F00CF8E5E700BF6001002070030020A1
:100BC00000B00240034B1B6C034A342101FB03239A
:100BD000186E70476001002070030020034B1B6CEF
:100BE000034A342101FB0323586E70476001002043
:100BF0007003002070B58EB005460E4600240194A7
:100C0000FFF7E0FF02900394FFF7E8FF04900594DC
:100C10000A96FF23069307948DF834408DF83540EB
:100C20008DF836404FF4C063089307230993FFF70C
:100C3000C9FF0B90FFF7D2FF0C902A4601A90A4882
:100C400001F00EFF094A680041198B0013444FF070
:100C5000FF3199640649D964284483001A444FF04F
:100C60007F4353640EB070BD70030020600100200C
:100C700000000020014B1864704700BF6001002095
:100C8000034A136C03EB430399000A44D064704792
:100C900060010020F0B583B007460B4B1C6C0B4A7B
:100CA000342303FB0423DD6DFFF78CFF0646FFF7BB
:100CB00095FF0197002300930346324629462046BC
:100CC000FFF742FF03B0F0BD600100207003002079
:100CD000F8B506460C461546104B1B6C10493422DD
:100CE00002FB0312926C022A0BD00D4A342101FB45
:100CF0000323DF6DFFF766FF00FB046047F8205019
:100D0000F8BD0A46342101FB0323DF6DFFF75AFFCC
:100D100000FB0460ADB227F81050F1E7600100203D
:100D2000700300202DE9F04F83B081460F460092FA
:100D3000334A136C03EB430399000A44D36CDA88FB
:100D400001929D8805F1070B4FEAEB0B4FEACB08A8
:100D50005FFA88F8EBB2A8EB03085FFA88F84FF067
:100D6000000A33E0009AD65C002413E00099CB5CC3
:100D7000567846EA0326F7E7214A136C03EB430350
:100D800099000A4409EB0400926C394680B2FFF7DF
:100D90009FFF0134A54215D92B1B4344013B01227F
:100DA00002FA03F33342E7D0154A136C03EB430313
:100DB00099000A4409EB0400526C394680B2FFF7EF
:100DC00087FFE6E70137BFB20AF1010A019B5345ED
:100DD00012D90AFB0BF3009A1A44BBF1010FC1D0E0
:100DE000BBF1020FC2D00099CB5C5678360246EABE
:100DF000034693781E43B7E703B0BDE8F08F00BF0A
:100E00006001002038B50A4C236C03EB43039D00BE
:100E10002C44E36C1C68A2F12005DA8802FB05F281
:100E20009B880733DB1003FB0242FFF77BFF38BDD3
:100E3000600100202DE9F0410546884616461F4610
:100E40001346002401E0013413465A1C1B78002B82
:100E5000F9D1FFF7B7FE274A136C03EB4303990060
:100E60000A44D36C9A88B0FBF2F0012F06D0022F0F
:100E70000CD02BB2002B3BDD002420E0041B04FB34
:100E800002F3C3F34F031D44ADB2F2E7031B13FBA0
:100E900002F39BB25D1BADB2EBE73A4641462846F2
:100EA000FFF7B0FF134A136C03EB430399000A44A6
:100EB000D36C9B881D44ADB201360134A4B237789F
:100EC000FFF780FE0B4A136C03EB430399000A44BF
:100ED000D36C9B8803FB140080B2984234BF00207F
:100EE0000120002F08BF00200028D6D1BDE8F081E6
:100EF0000125C1E76001002008B5094B1A68936914
:100F000043F00103936101224FF48051054801F041
:100F10004FF801220821044801F04AF808BD00BF3B
:100F2000700300200020024000280240F0B58FB07E
:100F30004A4B5A6C42F080625A645A6C02F08062EA
:100F40000092009A1A6B42F400021A631A6B02F4C0
:100F500000020192019A1A6B42F010021A631A6B96
:100F600002F010020292029A1A6B42F040021A63D7
:100F70001A6B02F040020392039A1A6B42F48072D9
:100F80001A631A6B02F480720492049A1A6B42F488
:100F900000721A631A6B02F400720592059A1A6BBA
:100FA00042F480621A631A6B02F480620692069A17
:100FB0001A6B42F480721A631A6B02F48072079201
:100FC000079A1A6B42F480621A631B6B03F4806306
:100FD0000893089B1023099302240A9400230B937F
:100FE0000C940E250D9509A91D4800F0F1FE4FF453
:100FF000805709970A9409230D9309A9194800F00D
:10100000E7FE4FF4664309930A940D95164E09A91D
:10101000304600F0DDFE4EF6FF7309930A940D95FD
:1010200009A9124800F0D4FEF72309930A940D95FC
:101030000F4C09A9204600F0CBFE099701250A951F
:1010400009A9304600F0C4FE082309930A9509A9AE
:10105000204600F0BDFE0FB0F0BD00BF00380240DA
:10106000001002400018024000200240002402400C
:101070000028024008B507480823C365C02303675A
:10108000052383674FF48033C0F888305C3002F06A
:1010900047F808BD6001002010B5254C2823636186
:1010A0000923A3613523E3610B23236240F21B1361
:1010B000A36240F21523636240F21D13236340F2E2
:1010C0003523E36200212046FFF7D4FF4FF4F0738D
:1010D00023664FF488736366002384F8343084F801
:1010E000353084F836306360A360E3602361114BD0
:1010F0002360204601F0E2FCA0B10D4801F0BCFBEA
:1011000001224FF480510C4800F052FF01220821C7
:101110000A4800F04DFF00F023F90948FFF7B0FD41
:10112000002010BD00212046FFF700FFE5E700BFCB
:1011300070030020006801400020024000280240A7
:10114000000000202DE9F04383B081464FF00008F5
:10115000CDF80480204C0126266010276760A66029
:10116000C4F80C801D4D4FF6FF722146284602F050
:10117000CDFA304600F0AAFA022323606760A66029
:10118000C4F80C804FF6FF722146284602F0BEFAE2
:101190000323236067600823A360C4F80C804FF624
:1011A000FF722146284602F0B1FA4FF4087301930A
:1011B000042323606760A660019BE3604FF6FF7223
:1011C0002146284602F0A2FA4946284602F0BBFA18
:1011D00003B0BDE8F08300BF4002002018040020E7
:1011E00070B58EB00646554B9A6B42F001029A6379
:1011F0009A6B02F001020192019A1A6B42F480028A
:101200001A631A6B02F480020292029A1A6B42F07D
:1012100004021A631A6B02F004020392039A1A6B17
:1012200042F008021A631A6B02F008020492049A50
:101230001A6B42F010021A631A6B02F01002059248
:10124000059A1A6B42F020021A631A6B02F0200210
:101250000692069A1A6B42F040021A631A6B02F069
:1012600040020792079A1A6B42F080021A631B6BC6
:1012700003F080030893089B02230A9301220B9238
:101280000C930C230D930EAC082344F8143D214617
:101290002B4800F09DFD4CF2037309932146294829
:1012A00000F096FD4FF6837309932146264800F01F
:1012B0008FFD4FF63F0309932146244800F088FD37
:1012C00048F2331309932146214800F081FD282379
:1012D000099321461F4800F07BFD1F4B00245C61F1
:1012E00080229A614FF40072DA614FF480621A62D0
:1012F0004FF480525A624FF480429A62DC624FF49B
:1013000000321A635C6303229A63DC631C641D462B
:10131000124A45F8102F35639E64284600F092FB70
:10132000284600F029FB22460F21382000F0F4F96E
:10133000382000F023FA0EB070BD00BF0038024024
:1013400000080240000C024000100240001402405D
:1013500000180240001C02404002002010640240BD
:1013600038B51D4C1D4B23601D4D02232B670721F3
:1013700069670422AA67E967C5F88030C5F8843038
:10138000C5F8883000216160A160E260102323610C
:10139000402363614FF48073A361E1614FF4006304
:1013A00023624FF480536362A1622046FFF718FF67
:1013B00005F17001204602F08AF948B9094B002274
:1013C0001A7040F20360FFF7BDFE064B187838BD77
:1013D000044B01221A70F4E718040020400100A019
:1013E000400200203000002010B50C4B18805980BE
:1013F0000B4C2368702098476368702098475128E9
:1014000009D1064B5C607020187208215972E3689C
:101410009847002010BD0320FCE700BF2C030020EC
:101420000800002010B582B0044602A9002341F84C
:10143000043D184B187AFFF7DDF9019B182B1DD0DE
:1014400006D8102B12D0142B14D05BB101200BE066
:10145000402B17D0492B19D01C2BF7D10423A362A2
:10146000002001E00020A06202B010BD0123A362B1
:101470000020F9E70223A3620020F5E70323A3621B
:101480000020F1E70523A3620020EDE70623A36215
:101490000020E9E72C03002070B592B00546002338
:1014A000059304930393674B5A681269187A90471F
:1014B0002870002800F0C38000241FE012AA02EB6D
:1014C000440232F8241C22F80C1C32F8301C22F89A
:1014D000181C24E09BB25B1A9BB254E092B2121A21
:1014E00092B25EE005EB44035980231D05EB4303F4
:1014F000988076E02B190122DA7601342B78A3420A
:1015000040F29A804F4E73685B69610006AA0A44F4
:1015100009A80144307A9847737A012BCED013F092
:10152000020F08D012AA02EB440131F8242CC2F5B4
:10153000805221F80C2C13F0040F08D012AA02EBF1
:10154000440131F8302CC2F5805221F8182C13F0E8
:10155000080F0AD012AB03EB440333F8242C23F812
:10156000182C33F8302C23F80C2C12AB03EB44036B
:1015700033F80C1C334B03EB8403DB689942A9D985
:101580009BB2CB1A9BB212AA02EB440232F8180C9F
:101590002C4A02EB8402126A90429FD992B2821ABC
:1015A00092B21344052B04DD264B03EB8403D96070
:1015B0001862244B1B7A702B94D0224A02EB8401D0
:1015C000CB68108803FB00F31B0B05EB4400438042
:1015D0000B6A528803FB02F31B0B221D05EB420230
:1015E0009380184B187A03AB009304AB05AA2146ED
:1015F000FFF712F92B19059A9A75049A83F820209F
:10160000039B032B3FF679AF01A252F823F000BFF2
:10161000F5140008211600082916000831160008E4
:101620002B190222DA7668E72B190322DA7664E7AF
:101630002B190022DA7660E72846FFF7F3FE12B096
:1016400070BD00BF2C03002010B504460E4B187867
:101650004FF47A73B3FBF0F30C4A1068B0FBF3F06D
:1016600000F09AF868B90F2C01D901200AE0002295
:1016700021464FF0FF3000F04FF8034B5C60002034
:1016800000E0012010BD00BF340000203C0000201D
:1016900008B5032000F02EF80020FFF7D5FF02F078
:1016A00049FA002008BD0000034A1168034B1B786B
:1016B0000B441360704700BF4C040020340000202E
:1016C000014B1868704700BF4C04002038B5044631
:1016D000FFF7F6FF0546B4F1FF3F02D0044B1B783D
:1016E0001C44FFF7EDFF401BA042FAD338BD00BFFA
:1016F000340000200649CB6823F4E0631B041B0C74
:10170000000200F4E0600343024A1A43CA607047D3
:1017100000ED00E00000FA0530B4154BDB68C3F3C0
:101720000223C3F10704042C28BF04241D1D062D29
:1017300014D9033B4FF0FF3505FA04F421EA040104
:10174000994005FA03F322EA03031943002807DB53
:101750000901C9B2074B195430BC70470023E9E7AF
:1017600000F00F000901C9B2034B1954F4E700BFA0
:1017700000ED00E000E400E014ED00E0002807DBED
:1017800000F01F02400901239340024A42F8203032
:10179000704700BF00E100E00138B0F1807F0AD25D
:1017A000064B5860064AF02182F82310002098600A
:1017B00007221A6070470120704700BF10E000E068
:1017C00000ED00E0002838D010B50446437F1BB37D
:1017D0000223637723791BBB2368194A5A61226865
:1017E000936823F018039360637913BB23684FF069
:1017F000FF321A612268936823F0600361690B432A
:1018000093602268936823F08003A1690B4393607F
:1018100001236377002010BD037702F0A3F9D7E717
:10182000E268A168204600F00DF80028DCD0012015
:10183000F1E7236822691A61DCE70120704700BFE5
:10184000B71DC10430B41F24651E3CB105F01F0351
:1018500021FA03F32C4613F0010FF5D0182A23D8F0
:10186000DFE802F00F222222222222221E2222223E
:10187000222222221A222222222222220D00062D98
:1018800014D80368596101688B6823F018031A4360
:101890008A60002030BC7047072DF2D90120F9E79B
:1018A0000F2DEED90120F5E70120F3E70120F1E744
:1018B0000268D3B2103B0949A1FB03131B09084975
:1018C000C95CC165032B04D8064B13408365806D4A
:1018D0007047044B134004338365F8E7ABAAAAAA08
:1018E0000460000800FCFFFF836A826992B9012B43
:1018F0000AD01BB1022B01D000207047C36A13F03D
:10190000807F2CD100207047C36AB3F1C07F28D0FC
:1019100000207047B2F5005F05D0022B29D9032BB8
:1019200015D000207047032B03D8DFE803F01C0418
:101930001C0A00207047C36A13F0807F15D1002075
:101940007047C36AB3F1C07F11D000207047C36AEB
:1019500013F0807F01D001207047002070470120E4
:101960007047012070470120704701207047012017
:10197000704701207047000070B50446FFF7A0FED5
:10198000002C5BD00546002384F83430022384F811
:1019900035302268136823F00103136023681A6846
:1019A00012F0010F0AD0FFF78BFE401B0528F5D976
:1019B00020236365032084F8350070BD1A68204831
:1019C00010406168A2680A43E1680A4321690A433A
:1019D00061690A43A1690A43E1690A43216A0A432A
:1019E0000243616A04291ED01A602668756925F0D1
:1019F0000705636A1D43042B07D1A36A1D43E36AED
:101A00001BB12046FFF770FF90B975612046FFF7C4
:101A10004FFFE26D3F239340836000206065012308
:101A200084F83530C9E7E16A206B01430A43DBE7FC
:101A300040236365012084F83500BEE70120BCE740
:101A40003F8010F000282CD038B5044690F835308F
:101A5000DBB2022B27D00268136823F00103136066
:101A6000036800251D6003685D6003689D6003686E
:101A7000DD6003681D61036821225A61FFF718FFCA
:101A8000E26D3F2393408360E56325646564A5644C
:101A9000E5642565656584F8355084F8345028463A
:101AA00038BD012070470220FAE770B40668746CF4
:101AB00004F04044039D45EA03431C4374640368F7
:101AC000DA634368B3F5403F03D00368D96070BC64
:101AD000704701F07F4601F47F0301F47F45CAB2ED
:101AE000846894B1012C0ED0022C11D0032C17D095
:101AF000360F1B0D2D0B190241EA051141EA063183
:101B000041EA121101E021F07F4103689963DEE7A9
:101B1000DB0CAD0AD90241EA451141EAD201F4E7F2
:101B2000F60FDB0CED0A990241EA451141EAC63194
:101B300041EAD201E9E7000038B310B5044690F855
:101B40003930EBB1022384F839302268136823F46A
:101B5000403361680B4313602268536B23F0070323
:101B6000A1680B4353632268116C094B0B40E16879
:101B70000B4313640020E063012384F8393010BD67
:101B800080F8383002F004F8DCE70120704700BF2D
:101B900000C0FFFF10B582B090F83840012C13D080
:101BA0000446012084F83800022084F839000498A3
:101BB00000902046FFF779FF2268136843F0010385
:101BC0001360002002B010BD0220FBE770B582B0A8
:101BD00004460D460023019303681B6813F0010FB0
:101BE00011D12268D369526A134313F0200F47D1F1
:101BF000236812229A60012384F83930002084F887
:101C0000380002B070BDFFF75BFD064623685A68D6
:101C100012F0020FE5D15A680192019A12F0210FD9
:101C200014D1B5F1FF3FF1D0FFF74AFD801BA84268
:101C300001D8002DEAD1E36B43F02003E3630320D6
:101C400084F83900002384F83830DAE7019A12F07A
:101C5000200F03D0E26B42F00202E263019A12F01D
:101C6000010F03D0E26B42F00102E26321229A608D
:101C7000042384F83930002384F838300120C0E789
:101C8000FFF71EFD064623685A6812F0100FAFD109
:101C90005A680192019A12F0290F14D1B5F1FF3F51
:101CA000F1D0FFF70DFD801BA84201D8002DEAD12D
:101CB000E36B43F02003E363032084F8390000233F
:101CC00084F838309DE7019A12F0080F03D0E26BD8
:101CD00042F00402E263019A12F0200F03D0E26B9B
:101CE00042F00202E263019A12F0010F03D0E26BAC
:101CF00042F00102E26329229A60042384F8393019
:101D0000002384F8383001207BE7000090F8383059
:101D1000012B59D030B4012380F83830022380F8E9
:101D2000393000EB0113DA698B1C1B01C35842EAFE
:101D30000343093A012A1ED98A1C00EB0212526899
:101D400043EA026341BB0468656A204A2A401343A0
:101D50006362026800EB01139C699461DB69093BD3
:101D6000012B10D9012380F83930002380F8383056
:101D7000184630BC70478A1C00EB0212526802F011
:101D80007F421343DEE7023100EB01114B6802682A
:101D900023F07F439362E5E70468E5690B4A2A4034
:101DA0001343E361026800EB01139C691461DB6972
:101DB000093B012BD6D8023100EB01114B680268B8
:101DC00023F07F431362CDE702207047F0FFFC0051
:101DD00000230F2B00F2E280F0B482B039E0092238
:101DE00000E00022B2403A4302346D4E46F824200F
:101DF0006C4A1468EA4302EA04064F6817F4803F0D
:101E000001D045EA0406674C2660646802EA0406CD
:101E10004F6817F4003F01D045EA0406614C666044
:101E2000A46802EA04064F6817F4801F01D045EA4F
:101E300004065C4CA660E46822404E6816F4001F5D
:101E400001D045EA0402574CE26001330F2B00F247
:101E5000A28001229A400C6804EA0205AA42F4D149
:101E60004C68122C18BF022C10D1DE08083650F82E
:101E700026C003F00704A7000F24BC402CEA040C82
:101E80000C69BC4044EA0C0440F8264004685F003A
:101E90000326BE40F64306EA040C4C6804F0030433
:101EA000BC4044EA0C0404604C6804F1FF3C112C73
:101EB00018BFBCF1010F01D9122C11D1846806EAB8
:101EC000040CCC68BC4044EA0C048460446824EAF6
:101ED000020C4C68C4F300129A4042EA0C024260C1
:101EE000C26816408A68BA403243C2604A6812F03B
:101EF000805FAAD02C4A546C44F480445464526CE1
:101F000002F480420192019A9C08A61C244A52F8CD
:101F1000267003F0030296000F22B24027EA020760
:101F2000224A90423FF45DAF02F58062904222D097
:101F300002F58062904220D002F5806290421ED06D
:101F400002F5806290421CD002F5806290421AD065
:101F500002F58062904218D002F58062904216D05D
:101F600002F58062904214D002F5806290423FF404
:101F700036AF0A2236E7012234E7022232E7032293
:101F800030E704222EE705222CE706222AE7072263
:101F900028E7082226E702B0F0BC7047704700BF70
:101FA00000380140003C014000380240000002407F
:101FB00012B90904816170478161704703689A69A9
:101FC00012F0020F01D000229A6203689A6912F09F
:101FD000010F03D19A6942F001029A61704770B40F
:101FE000039E05686868740D04F4806444F07F748F
:101FF00044F4583444F47F7444F0030420EA0400A9
:10200000C1F3090141EA02411943314301436960C7
:1020100070BC704770B504460D46164603689B6950
:1020200013F0100F1CD023689A6912F0200F19D1F9
:10203000B5F1FF3FF7D0FFF743FB801BA84201D863
:10204000002DF0D1636C43F020036364202384F8F7
:102050004130002384F8423084F84030012020E0F1
:1020600000201EE01022DA6123682025DD61204671
:10207000FFF7A4FF2268536823F0FF7323F48B3328
:1020800023F4FF7323F001035360636C43F00403F4
:10209000636484F84150002384F8423084F840306F
:1020A000012070BD70B504460D46164623689B6935
:1020B00013F0020F1DD1324629462046FFF7AAFF32
:1020C000C8B9B5F1FF3FF1D0FFF7FAFA801BA8427B
:1020D00001D8002DEAD1636C43F020036364202310
:1020E00084F84130002384F8423084F840300120E5
:1020F00000E0002070BD0120FCE7F8B505460F4662
:1021000016461C462B689B6937EA03030CBF012364
:102110000023B34218D1B4F1FF3FF3D0FFF7D0FA58
:10212000069BC01AA04201D8002CEBD16B6C43F087
:1021300020036B64202385F84130002385F842306A
:1021400085F84030012000E00020F8BD70B582B075
:10215000044616461D46184B00934FF08073EAB2B2
:10216000FFF73DFF079A06992046FFF79BFFE8B966
:10217000012D0ED12368F6B29E62079B0093069B49
:10218000002280212046FFF7B8FF034678B10123E3
:102190000DE02368320A9A62079A06992046FFF7F3
:1021A00081FF38B92368F6B29E62E6E7012318463C
:1021B00002B070BD0123FAE70020008070B582B044
:1021C000044616461D46184B00930023EAB2FFF75B
:1021D00006FF079A06992046FFF764FFE8B9012D2C
:1021E0000ED12368F6B29E62079B0093069B0022E5
:1021F00040212046FFF781FF034678B101230DE01F
:102200002368320A9A62079A06992046FFF74AFF26
:1022100038B92368F6B29E62E6E70123184602B099
:1022200070BD0123FAE700BF0020008070B50546AD
:102230000C4616462B689B6913F0200F1AD13246C4
:1022400021462846FFF7E6FEB0B9FFF739FA801BB2
:10225000A04201D8002CEDD16B6C43F020036B64DD
:10226000202385F84130002385F8423085F840303E
:10227000012070BD0020FCE70120FAE77047000054
:10228000002857D010B5044690F84130002B41D0BB
:10229000242384F841302268136823F0010313607B
:1022A0006368226823F0706313612268936823F4E3
:1022B00000439360E368012B31D0A368226843F4A4
:1022C00004439360E368022B2FD0226851681A4BB5
:1022D0000B4353602268D36823F40043D36023691F
:1022E00062691343A169226843EA0123D360E36969
:1022F000216A22680B4313602268136843F00103CC
:10230000136000206064202384F84130206384F847
:10231000420010BD80F84030FFF7B0FFB8E7A36877
:10232000226843F400439360CCE723684FF40062D3
:102330005A60CAE701207047008000027047A8B1C8
:1023400010B50446242380F841300268136823F056
:1023500001031360FFF7F2FF0020606484F841007E
:10236000206384F8420084F8400010BD01207047CB
:102370002DE9F04782B0BDF82C6090F84150EDB2E5
:10238000202D40F0BF80B6FA86F56D090A9C002C1E
:1023900008BF0125D5B990F84040012C00F0B78066
:1023A000984691460D4604464FF0010A80F840A039
:1023B000FFF786F907460090192352464FF4004173
:1023C0002046FFF79AFE30B101239CE04FF40073E2
:1023D0004364012397E0212384F84130402384F8AB
:1023E0004230002363640A9A6262668563630197E0
:1023F0000C9B009343464A4629462046FFF7A6FE1B
:1024000070B9638D9BB2FF2B0FD9FF222285002369
:1024100000934FF0807329462046FFF7E0FD21E04E
:10242000002384F8403053466DE0628D92B22285DD
:10243000002300934FF00073D2B229462046FFF7E5
:10244000CEFD0FE0628D92B22285002300934FF003
:102450000073D2B229462046FFF7C1FD638D9BB2BF
:10246000002B32D03A460C992046FFF71BFE00287D
:102470004FD1626A236812789A62636A0133636299
:10248000638D013B9BB26385238D013B9BB223850A
:10249000628D92B2002AE1D0002BDFD100970C9B15
:1024A000002280212046FFF728FEA0BB638D9BB24F
:1024B000FF2BC7D9FF222285002300934FF08073A2
:1024C00029462046FFF78BFDC8E73A460C9920467F
:1024D000FFF7ACFE034600BB22682021D1612068D3
:1024E000426822F0FF7222F48B3222F4FF7222F053
:1024F0000102426084F84110002284F8422084F8EE
:10250000402000E00223184602B0BDE8F087022315
:10251000F9E70123F7E70123F5E70123F3E70000DB
:102520002DE9F04782B0BDF82C6090F84150EDB233
:10253000202D40F0C180B6FA86F56D090A9C002C6A
:1025400008BF0125D5B990F84040012C00F0B980B2
:10255000984691460D4604464FF0010A80F840A087
:10256000FFF7AEF807460090192352464FF400419A
:102570002046FFF7C2FD30B101239EE04FF4007307
:102580004364012399E0222384F84130402384F8F6
:102590004230002363640A9A62626685636301972E
:1025A0000C9B009343464A4629462046FFF706FE09
:1025B00070B9638D9BB2FF2B0FD9FF222285454B4B
:1025C00000934FF0807329462046FFF708FD21E075
:1025D000002384F8403053466FE0628D92B222852A
:1025E0003C4B00934FF00073D2B229462046FFF7D0
:1025F000F6FC0FE0628D92B22285002300934FF02B
:102600000073D2B229462046FFF7E9FC638D9BB2E6
:10261000002B34D000970C9B002204212046FFF7AA
:102620006CFD00284FD123685A6A636A1A70636A86
:1026300001336362238D013B9BB22385628D013A96
:1026400092B26285628D92B2002ADFD0002BDDD17A
:1026500000970C9B002280212046FFF74EFDA0BB77
:10266000638D9BB2FF2BC5D9FF22228500230093E7
:102670004FF0807329462046FFF7B1FCC6E73A4683
:102680000C992046FFF7D2FD034600BB22682021AB
:10269000D1612068426822F0FF7222F48B3222F46A
:1026A000FF7222F00102426084F84110002284F897
:1026B000422084F8402000E00223184602B0BDE822
:1026C000F0870223F9E70123F7E70123F5E7012368
:1026D000F3E700BF0024008090F84100704700003D
:1026E000F0B44D680468E368C3F30B431D44D201A2
:1026F0001444D4F8883003F47043C4F888300B686D
:102700000468E668C6F30B4633440133144443EAD5
:102710000543C4F88830CD680468E368C3F30A034E
:102720001D441444D4F88C3003F47043C4F88C3046
:102730008B680468E668C6F30A0633440133144420
:1027400043EA0543C4F88C3003681344D3F894403B
:1027500024F00704C3F89440036813440C69C3F8D9
:10276000944091F831C091F832708E690568154433
:10277000D5F89C300024C5F89C4091F8303043EAED
:102780000C2343EA07430568154443EA0663C5F88A
:102790009C3003681344D3F8985025F0FF05C3F824
:1027A0009850036813444D69C3F898500368134464
:1027B000D3F8A0602D4D3540C3F8A050CD690E6A06
:1027C000036813443543C3F8A05003681344D3F897
:1027D000AC50C3F8AC40036813444C6AC3F8AC4037
:1027E0000B696BB1012B3AD0022B18BF042B38D0E8
:1027F000032B38D0072B01D0012302E0022300E095
:10280000042304681444D4F8B05005F0E025C4F85B
:10281000B0508C6A03FB04F54C680E68A41B03FBE4
:1028200004F303330468144443EA0543C4F8B030A6
:1028300003681344D3F8B4500D4C2C40C3F8B44093
:1028400003681344C96AC3F8B41003681A44D2F881
:10285000843043F00103C2F88430F0BC7047032396
:10286000CFE70223CDE70223CBE700BFF8F8FFFF55
:1028700000F8FFFF70470000002877D038B5044605
:1028800090F8A130002B6CD0022384F8A13022688C
:10289000936923F07043936121688A696368A06833
:1028A0000343E06803432069034313438B612168BA
:1028B0008A682F4B1A408A60656920688268A1691E
:1028C00041EA05410A4382602168CA681A40CA6029
:1028D000E5692068C268216A41EA05410A43C2608D
:1028E00021680A691A400A61656A20680269A16A5A
:1028F00041EA05410A43026121684A6913404B617C
:10290000E06A21684B69226B42EA004213434B6143
:1029100094F8350094F836301B042168CA6A02F036
:102920007F42CA622168CA6A43EA002394F83400ED
:1029300003431343CB622268536B43F00403536396
:102940002268536B43F0020353632268936943F098
:10295000010393610020C4F8A400012384F8A1308E
:1029600038BD80F8A030FFF785FF8DE70120704764
:1029700000F800F070477047704710B504460368D0
:102980009A6B12F0040F03D09A6B12F0040F1BD154
:1029900023689A6B12F0020F03D09A6B12F0020FA9
:1029A00027D123689A6B12F0010F03D09A6B12F0B3
:1029B000010F34D123689A6B12F0080F03D09A6B81
:1029C00012F0080F3BD110BD5A6B22F004025A637B
:1029D00003680422DA63D0F8A43043F00103C0F89E
:1029E000A43080F8A120002380F8A030FFF7C2FFB8
:1029F000CEE75A6B22F002025A6323680222DA639E
:102A0000D4F8A4301343C4F8A430042384F8A130CC
:102A1000002384F8A0302046FFF7ACFFC1E75A6BD3
:102A200022F001025A6322680123D36384F8A130A3
:102A3000002384F8A0302046FFF79DFFBAE75A6BC9
:102A400022F008025A6323680822DA63012384F81B
:102A5000A130002384F8A0302046FFF78DFFB2E7B5
:102A600090F8A030012B27D02DE9F04194460F4675
:102A700006464FF0010880F8A080022380F8A130BC
:102A8000342404FB020438340D460FCD0FC40FCD9F
:102A90000FC40FCD0FC42B68236062463946304601
:102AA000FFF71EFE3368C3F8248086F8A18000205B
:102AB00086F8A000BDE8F0810220704790F8A100E0
:102AC0007047000010B582B01B4B1A6C42F0805268
:102AD0001A641B6C03F080530193019B174A13681F
:102AE00043F480331360FEF7EBFD0446134B5B6841
:102AF00013F4803F08D1FEF7E3FD001BB0F57A7FA9
:102B0000F4D9032002B010BD0C4A136843F400331B
:102B10001360FEF7D5FD0446084B5B6813F4003FD5
:102B200007D1FEF7CDFD001BB0F57A7FF4D9032065
:102B3000E8E70020E6E700BF0038024000700040F0
:102B4000002800F0DB8170B582B00446036813F002
:102B5000010F29D0A24B9B6803F00C03042B1AD061
:102B60009F4B9B6803F00C03082B0FD06368B3F5F1
:102B7000803F40D0002B54D1994B1A6822F4803208
:102B80001A601A6822F480221A6039E0944B5B685C
:102B900013F4800FEAD0924B1B6813F4003F03D06C
:102BA0006368002B00F0AC81236813F0020F75D02E
:102BB0008B4B9B6813F00C0F5ED0894B9B6803F026
:102BC0000C03082B53D0E368002B00F08A80844A62
:102BD000136843F001031360FEF772FD0546804B56
:102BE0001B6813F0020F73D1FEF76AFD401B022829
:102BF000F5D9032087E17A4A136843F480331360E0
:102C000063682BB3FEF75CFD0546754B1B6813F438
:102C1000003FC9D1FEF754FD401B6428F5D90320BD
:102C200071E1B3F5A02F09D06D4B1A6822F4803200
:102C30001A601A6822F480221A60E1E7684B1A6869
:102C400042F480221A601A6842F480321A60D7E790
:102C5000FEF736FD0546624B1B6813F4003FA3D018
:102C6000FEF72EFD401B6428F5D903204BE15C4B99
:102C70005B6813F4800FA6D1594B1B6813F0020F49
:102C800004D0E368012B01D001203CE1544A1368D1
:102C900023F0F803216943EAC1031360236813F0AA
:102CA000080F46D0636983B34D4A536F43F0010365
:102CB0005367FEF705FD0546494B5B6F13F0020FA6
:102CC00037D1FEF7FDFC401B0228F5D903201AE19D
:102CD000434A136823F0F803216943EAC1031360F0
:102CE000DCE73F4A136823F001031360FEF7E8FCBA
:102CF00005463B4B1B6813F0020FCFD0FEF7E0FCFC
:102D0000401B0228F5D90320FDE0354A536F23F01C
:102D100001035367FEF7D4FC0546314B5B6F13F09C
:102D2000020F06D0FEF7CCFC401B0228F5D9032089
:102D3000E9E0236813F0040F7ED0294B1B6C13F0DD
:102D4000805F1ED1264B1A6C42F080521A641B6CB5
:102D500003F080530193019B0125224B1B6813F460
:102D6000807F10D0A368012B21D0002B3CD11C4BBD
:102D70001A6F22F001021A671A6F22F004021A6712
:102D80001AE00025E9E7174A136843F480731360DB
:102D9000FEF796FC0646134B1B6813F4807FE1D1C7
:102DA000FEF78EFC801B6428F5D90320ABE00C4AAB
:102DB000136F43F001031367A3685BB3FEF780FC56
:102DC0000646074B1B6F13F0020F34D1FEF778FC59
:102DD000801B41F288339842F3D9032093E000BF6F
:102DE0000038024000700040052B09D0484B1A6F94
:102DF00022F001021A671A6F22F004021A67DBE759
:102E0000434B1A6F42F004021A671A6F42F0010234
:102E10001A67D1E7FEF754FC06463D4B1B6F13F0D3
:102E2000020F08D0FEF74CFC801B41F28833984219
:102E3000F3D9032067E0F5B9A369002B62D0344AC7
:102E4000926802F00C02082A5FD0022B19D0304A97
:102E5000136823F080731360FEF732FC04462C4B9A
:102E60001B6813F0007F47D0FEF72AFC001B0228E6
:102E7000F5D9032047E0264A136C23F080531364EE
:102E8000DAE7234A136823F080731360FEF718FC17
:102E900005461F4B1B6813F0007F06D0FEF710FCA1
:102EA000401B0228F5D903202DE0E369226A134371
:102EB000626A43EA8213A26A5208013A43EA024371
:102EC000E26A43EA026343F00053114A5360136815
:102ED00043F080731360FEF7F3FB04460C4B1B6852
:102EE00013F0007F06D1FEF7EBFB001B0228F5D99B
:102EF000032008E0002006E0002004E001207047E5
:102F0000012000E0002002B070BD0120FBE700BFFF
:102F100000380240264B9B6803F00C03042B44D07E
:102F2000082B01D0234870472DE9F04B204B5A68FD
:102F300002F03F025B6813F4800F13D01C4B5968FA
:102F4000C1F3881100231C48A1FB0001FDF760F9C3
:102F5000174B5B68C3F3014301335B00B0FBF3F035
:102F6000BDE8F08B124B5B68C3F388131E46002745
:102F70005C010025E41A65EB0705A90141EA9461AB
:102F8000A001001B61EB0501CB0043EA5073C400B4
:102F9000A01943EB07018B0243EA905384022046B9
:102FA00019460023FDF734F9D2E70348704700BF04
:102FB000003802400024F40040787D01002800F031
:102FC000A28070B50446524B1B6803F00F038B427E
:102FD0000CD24F4A136823F00F030B43136013689E
:102FE00003F00F038B4201D0012070BD236813F062
:102FF000020F17D013F0040F04D0464A936843F42D
:10300000E0539360236813F0080F04D0414A93689B
:1030100043F4604393603F4A936823F0F003A06851
:10302000034393600D46236813F0010F31D06368AA
:10303000012B20D0022B25D0364A126812F0020F45
:1030400063D034498A6822F0030213438B60FEF791
:1030500037FB06462F4B9B6803F00C036268B3EB0B
:10306000820F16D0FEF72CFB801B41F2883398426A
:10307000F0D90320B9E7274A126812F4003FE0D1E3
:103080000120B2E7234A126812F0007FD9D1012053
:10309000ABE71F4B1B6803F00F03AB420CD91C4A74
:1030A000136823F00F032B431360136803F00F031F
:1030B000AB4201D0012098E7236813F0040F06D03B
:1030C000144A936823F4E053E1680B439360236848
:1030D00013F0080F07D00F4A936823F46043216967
:1030E00043EAC1039360FFF715FF0A4B9B68C3F3E4
:1030F0000313094AD35CD840084B18600020FEF740
:10310000A3FA002071E70120704701206DE700BF9E
:10311000003C0240003802400C6000083C000020E7
:10312000F0B583B00446036813F0010F0CD0AF4B29
:103130009A6822F400029A609A68416B0A439A6086
:10314000436BC3B1002600E00026236813F4002F70
:1031500015D0A64AD2F88C3023F44013E16B0B4310
:10316000C2F88C30E36BB3F5801F06D0002B00F063
:103170001B81002504E00126E7E70126F6E700258C
:10318000236813F4801F0FD0984AD2F88C3023F4B0
:103190004003216C0B43C2F88C30236CB3F5800FD5
:1031A00000F0048103B90125236813F0807F00D06B
:1031B000012613F0200F40F0FB80236813F0100F5E
:1031C0000CD08A4BD3F88C2022F08072C3F88C206C
:1031D000D3F88C20A16B0A43C3F88C20236813F426
:1031E000804F08D0814AD2F8903023F44033616E8A
:1031F0000B43C2F89030236813F4004F08D07B4A89
:10320000D2F8903023F44023A16E0B43C2F89030E3
:10321000236813F4803F08D0744AD2F8903023F426
:103220004013E16E0B43C2F89030236813F4003F63
:1032300008D06E4AD2F8903023F44003216F0B433C
:10324000C2F89030236813F0400F08D0674AD2F8D4
:10325000903023F00303616C0B43C2F89030236875
:1032600013F0800F08D0614AD2F8903023F00C039D
:10327000A16C0B43C2F89030236813F4807F08D010
:103280005A4AD2F8903023F03003E16C0B43C2F875
:103290009030236813F4007F08D0544AD2F890305D
:1032A00023F0C003216D0B43C2F89030236813F460
:1032B000806F08D04D4AD2F8903023F44073616D8E
:1032C0000B43C2F89030236813F4006F08D0474ACC
:1032D000D2F8903023F44063A16D0B43C2F89030D4
:1032E000236813F4805F08D0404AD2F8903023F46A
:1032F0004053E16D0B43C2F89030236813F4005F34
:1033000008D03A4AD2F8903023F44043216E0B4360
:10331000C2F89030236813F4800F08D0334AD2F8F3
:10332000903023F08063A16F0B43C2F89030236884
:1033300013F4001F0DD02D4AD2F8903023F0006313
:10334000E16F0B43C2F89030E36FB3F1006F00F010
:103350009980236813F0080F00D0012513F4802F03
:1033600008D0224AD2F8903023F04073616F0B43AB
:10337000C2F89030236813F4000F09D01B4AD2F82A
:10338000903023F08053D4F880100B43C2F8903073
:10339000002E79D12368B3F1007F75D0002D40F065
:1033A0000681002003B0F0BD0125E9E60126F9E61B
:1033B0000E4B1A6C42F080521A641B6C03F080535F
:1033C0000193019B0A4A136843F480731360FEF76C
:1033D00077F90746064B1B6813F4807F0AD1FEF786
:1033E0006FF9C01B6428F5D90320DBE700380240E1
:1033F00000700040B34B1B6F13F4407315D0226B69
:1034000002F440729A4210D0AE4B1A6F22F440720E
:10341000196F41F480311967196F21F480311967F0
:103420001A671B6F13F0010F12D1236B03F4407264
:10343000B2F5407F1DD0A34A936823F4F81393603C
:10344000A0490B6F226BC2F30B0213430B67B4E668
:10345000FEF736F907469B4B1B6F13F0020FE4D1C2
:10346000FEF72EF9C01B41F288339842F3D90320AE
:1034700098E79448826822F4F812934919400A4365
:103480008260DDE7012564E78E4A136823F08063DC
:103490001360FEF715F906468A4B1B6813F0006FA0
:1034A00006D0FEF70DF9801B6428F5D9032079E7D3
:1034B000236813F0010F13D0636B8BB9814AD2F8E4
:1034C0008430D2F88410606803F4403343EA8013F8
:1034D00001F070610B43A16843EA0173C2F88430C4
:1034E000236813F4002F03D0E26BB2F5801F06D0DF
:1034F00013F4801F1ED0236CB3F5800F1AD1714ACC
:10350000D2F88430D2F88410606803F4403343EA80
:103510008013E06843EA006301F0E0410B43C2F826
:103520008430D2F88C3023F01F03616A01390B43D9
:10353000C2F88C30236813F0807F11D0614AD2F832
:103540008400D2F88410666823691B0443EA86135A
:1035500000F07060034301F0E0410B43C2F8843097
:10356000236813F0007F0DD0626823691B0443EACF
:103570008213E26843EA0263A26843EA0273514A93
:10358000C2F884304F4A136843F080631360FEF73B
:1035900097F806464B4B1B6813F0006F7FF4FEAEA6
:1035A000FEF78EF8801B6428F4D90320FAE6454A1A
:1035B000136823F080531360FEF782F80546414BF1
:1035C0001B6813F0005F06D0FEF77AF8401B6428F2
:1035D000F5D90320E6E6236813F4002F01D0E26B4F
:1035E00022B113F4801F1DD0236CDBB9354AD2F809
:1035F0008830D2F88810606903F4403343EA8013BE
:10360000A06943EA006301F0E0410B43C2F888304F
:10361000D2F88C3023F4F853A16A013943EA01232C
:10362000C2F88C30236813F4001F03D0E36FB3F1AA
:10363000006F31D0236813F0080F19D0214AD2F857
:103640008810D2F88830606903F4403343EA80136D
:1036500001F070610B43E16943EA0173C2F88830FD
:10366000D2F88C3023F44033E16A0B43C2F88C303B
:10367000144A136843F080531360FEF721F80446A0
:10368000104B1B6813F0005F19D1FEF719F8001BEF
:103690006428F5D9032085E60A4AD2F88800D2F8D2
:1036A00088106569236A1B0443EA851300F0706083
:1036B000034301F0E0410B43C2F88830BAE7002031
:1036C00070E600BF00380240FFFCFF0F7047D8B122
:1036D00038B504460D4690F82C3083B1022384F8A7
:1036E0002C30211D206800F043F8626829462068CC
:1036F00000F078F8012384F82C30002038BD80F8E1
:103700002D30FFF7E3FFE9E70120704738B590F867
:103710002C30DBB2022B14D00D460446022380F875
:103720002C30006800F0AAF82B68022B04D001238B
:1037300084F82C30002038BD052384F82C3000207C
:10374000F9E70220F7E790F82C30DBB2022B0CD01F
:1037500010B50446022380F82C30006800F0A4F86D
:10376000012384F82C30002010BD02207047000097
:1037700030B40B68012B18D00368194A1A404B6803
:103780008C682343CC6823430C6923434C6923434F
:103790008C692343CC6923430C6A2343496A0B4356
:1037A00013430360002030BC7047046824F4F844DD
:1037B000CB690A6A1A434B6A1A4322434368084C8E
:1037C0001C404B688D682B43CD682B430D692B4300
:1037D0004D692B4389690B43234302604360E1E752
:1037E0000080FFFF30B4012A21D0826802F07042CD
:1037F0000B68013B4C68013C43EA04138C68013CB4
:1038000043EA0423CC68013C43EA04330C69013CDD
:1038100043EA04434C69013C43EA04538969013992
:1038200043EA016313438360002030BC7047836820
:10383000114C1C40CA68551E4B695A1E120542EABB
:1038400005322243C46804F070440B68013B4D68A4
:10385000013D43EA05138D68013D43EA05230D69E7
:10386000013D43EA05438969013943EA0163234382
:103870008260C360D8E700BFFF0F0FFF10B483B0B2
:103880000446002001900B684A6813438A68013A95
:1038900043EA4213CA6843EA42230193019B23612E
:1038A00003B05DF8044B7047436943EA410141614D
:1038B0000020704730B589B0002403940494059427
:1038C00006940794114B1A6B42F480721A631A6BB8
:1038D00002F480720192019A1A6B42F080021A631C
:1038E0001B6B03F080030293029B094D22460121CA
:1038F0002846FEF75DFB0123039304930594069489
:1039000003A92846FEF764FA09B030BD003802402A
:103910000020024008B50648064B036000230371EF
:1039200043714361836101230362FDF74BFF08BDCF
:10393000500400200030024010B5094C094B2360B0
:1039400000236360A360E360A362E36223636363B5
:103950002046FEF7F1F801212046FEF7D7F910BD09
:10396000AC04002000B0024030B595B030220021F8
:1039700008A800F0D1F90024039404940594069457
:1039800007941C4B1A6C42F080521A641B6C03F0B3
:1039900080530193019B184B1A6842F440421A600D
:1039A0001B6803F440430293029B012308934FF4E6
:1039B0008033099302250E954FF480030F930C2357
:1039C0001093C02311931295139508A8FFF7B8F828
:1039D000FFF778F80F230393049505944FF4A05351
:1039E00006934FF480530793062103A8FFF7E6FAE6
:1039F00015B030BD003802400070004000B583B003
:103A0000BFF34F8FBFF36F8F424B0021C3F85012AB
:103A1000BFF34F8FBFF36F8F5A6942F400325A6180
:103A2000BFF34F8FBFF36F8FC3F88410BFF34F8F77
:103A3000D3F88040C4F34E310FE01A4643F6E073EA
:103A400003EA411343EA82733248C0F86032531EDE
:103A5000002AF2D14B1E19B11946C4F3C902EDE791
:103A6000BFF34F8F436943F480334361BFF34F8FFC
:103A7000BFF36F8FFDF70CFEFFF776FFFFF71AFF1E
:103A8000FFF748FFFFF758FFFDF76AFC224B1A6B60
:103A900042F480521A631B6B03F480530193019B21
:103AA0004FF488714FF4F070FDF79EFCFDF7F4FAC7
:103AB0004FF040410020FDF79DF8FDF71DFA002072
:103AC000FDF7D8F81548FDF7E5F80323144A8821D7
:103AD000EF20FDF7AFF9134D2846FDF7DDFC124C42
:103AE0006A881249204600F01FF903232246142158
:103AF0000846FDF79FF9AA890D49204600F014F900
:103B0000032322463C211420FDF794F93220FDF7CF
:103B1000DDFDE0E700ED00E000380240FF0000FFBF
:103B20002460000874040020A00400202C60000819
:103B30003460000882B00A4B1A6C42F080521A645A
:103B40001A6C02F080520092009A5A6C42F4804241
:103B50005A645B6C03F480430193019B02B070478D
:103B6000003802400268094B9A4200D0704782B088
:103B700003F500631A6B42F480521A631B6B03F463
:103B800080530193019B02B0704700BF0030024098
:103B90000268094B9A4200D0704782B0A3F5F04307
:103BA0001A6B42F400021A631B6B03F400030193C7
:103BB000019B02B0704700BF00B002407047FEE7B3
:103BC000FEE7FEE7FEE770477047704708B5FDF770
:103BD0006BFD08BD08B50248FEF7CFFE08BD00BF6B
:103BE0007003002008B503460B4A126842B10A4A26
:103BF000106803446A46934206D8074A136008BD1A
:103C0000054A06491160F2E700F05CF80C230360F6
:103C10004FF0FF30F3E700BF60030020F004002006
:103C200010B40F4AD2F8883043F47003C2F88830D9
:103C30000C4B196841F001011960002098601C6864
:103C400009492140196009495960196821F4802106
:103C50001960D8604FF0006393605DF8044B7047C3
:103C600000ED00E000380240FFFFF6FE10300024B7
:103C7000DFF834D0002103E00C4B5B584350043193
:103C80000B480C4B42189A42F6D30B4A02E0002331
:103C900042F8043B094B9A42F9D3FFF7C1FF00F009
:103CA00017F8FFF7ABFE70470000052080600008A2
:103CB00000000020A4000020A4000020F004002048
:103CC000FEE70000014B1868704700BF400000206D
:103CD00070B50D4E0D4CA41BA4100025A54209D1B2
:103CE0000B4E0C4C00F026FCA41BA4100025A54292
:103CF00005D170BD56F8253098470135EEE756F8E6
:103D0000253098470135F2E77860000878600008B0
:103D1000786000087C60000802440346934200D1AA
:103D2000704703F8011BF9E70EB400B59CB01DAB5A
:103D3000029006906FF000410948079104910949EB
:103D400053F8042B05910068019302A900F066F86E
:103D5000029B00221A701CB05DF804EB03B07047A0
:103D6000400000200802FFFF2DE9F0478E689E42C8
:103D700082460C469046994637D88A8912F4906F4D
:103D800031D0256809696F1A6569022305EB45057D
:103D900095FBF3F509F101033B449D4238BF1D46F5
:103DA000530530D5294600F02BFB064650B90C23AD
:103DB000CAF80030A38943F04003A3814FF0FF30DD
:103DC000BDE8F0873A46216900F0A8FAA38923F4F8
:103DD000906343F08003A381266165613E44ED1B3F
:103DE0002660A5604E464E4500D94E4632464146B5
:103DF000206800F09EFAA3689B1BA36023681E4402
:103E000026600020DCE72A4600F054FB0646002826
:103E1000E2D12169504600F0A5FAC8E72DE9F04F3C
:103E20001D468B891F069DB080460C4616460FD551
:103E30000B696BB9402100F0E3FA2060206128B9DA
:103E40000C23C8F800304FF0FF30C8E04023636116
:103E50000023099320238DF8293030238DF82A3050
:103E600003954FF0010B37463D4615F8013B0BB16A
:103E7000252B3ED1B7EB060A0BD0534632462146DE
:103E80004046FFF771FF013000F0A480099B5344C6
:103E900009933B78002B00F09D8000234FF0FF3208
:103EA000CDE90523049307938DF853301A932F46D9
:103EB000052217F8011B5048FCF72AFB049BD0B9D8
:103EC000D90644BF20228DF853201A0744BF2B2265
:103ED0008DF853202A782A2A15D0079A2F460020D9
:103EE0000A25394611F8013B303B092B4DD9B8B1B1
:103EF0000FE02F46B8E7404A801A0BFA00F018434B
:103F000004903D46D3E7039A111D12680391002ADD
:103F100001DB079204E0524243F00203079204934C
:103F20003B782E2B0CD17B782A2B33D1039B1A1D87
:103F30001B680392002BB8BF4FF0FF330237059385
:103F40002E4D397803222846FCF7E2FA38B1402397
:103F5000401B03FA00F0049B0343013704933978B4
:103F600027488DF8281006227E1CFCF7D1FA00287D
:103F700038D0244B13BB039B073323F007030833CC
:103F80000393099B4B4409936DE705FB0232012023
:103F90000F46A6E700230137059319460A25384640
:103FA00010F8012B303A092A03D9002BC8D005910B
:103FB000C6E705FB012101230746F0E703AB0093A9
:103FC0002246114B04A94046AFF30080B0F1FF3FF9
:103FD0008146D6D1A3895B063FF535AF09981DB060
:103FE000BDE8F08F03AB00932246074B04A940467F
:103FF00000F082F8EAE700BF3C6000084260000879
:104000004660000800000000693D00082DE9F04707
:1040100091461F468A680B69DDF820809342B8BF3D
:104020001346C9F8003091F8432006460C4612B1F9
:104030000133C9F800302368990642BFD9F800302F
:104040000233C9F80030256815F0060507D104F1E0
:10405000190AE368D9F800209B1AAB4228DC94F8CF
:1040600043302268003318BF012392062DD404F197
:10407000430239463046C047013020D02368E56806
:10408000D9F8002003F00603042B08BFAD1AA3687B
:1040900022690CBF25EAE57500259342C4BF9B1A2F
:1040A000ED184FF000091A344D451AD1002008E0F0
:1040B0000123524639463046C047013003D14FF004
:1040C000FF30BDE8F0870135C3E7E1185A1C302006
:1040D00081F84300224494F8451082F843100233DB
:1040E000C5E70123224639463046C0470130E6D0B5
:1040F00009F10109D8E700002DE9F04301F1430C73
:104100000C46097E85B06E291746064698460C9ADD
:1041100000F0B38022D8632936D00AD8002900F0F5
:10412000B980582900F0838004F1420584F84210D8
:1041300032E0642901D06929F6D1206813680506A8
:1041400003F104012AD51B681160002B03DA2D222C
:104150005B4284F843206F480A2239E0732900F05B
:104160009D8008D86F2920D07029DDD1236843F0C5
:104170002003236003E0752917D07829D4D1782350
:1041800084F84530644855E01368191D1B681160B8
:1041900004F1420584F8423001238CE01B68116071
:1041A00010F0400F18BF1BB2CFE713682568181D29
:1041B0001060280601D51B6802E06806FBD51B8845
:1041C00054486F2914BF0A220822002184F84310A2
:1041D0006568A560002DC0F29580216821F004017A
:1041E0002160002B3DD1002D40F08E806546082ACD
:1041F0000BD12368DB0708D5236962689A42DEBFCA
:10420000302305F8013C05F1FF35ACEB05032361D4
:10421000CDF800803B4603AA21463046FFF7F6FE64
:1042200001304DD14FF0FF3005B0BDE8F083394883
:1042300084F84510136821681D1D1B6815600A0667
:104240000BD5CA0744BF41F0200121601BB9226889
:1042500022F0200222601022B7E74D0648BF9BB231
:10426000EFE76546B3FBF2F102FB1133C35C05F8DF
:10427000013D0B460029F5D1B9E71368256861694E
:10428000181D106028061B6801D5196002E06A0637
:10429000FBD51980002323616546B9E71368191D12
:1042A00011601D68626800212846FCF731F908B1E9
:1042B000401B606063682361002384F84330A7E7F4
:1042C00023692A4639463046C0470130AAD02368C0
:1042D0009B0713D4E068039B9842B8BF1846A3E736
:1042E00001234A4639463046C04701309AD001354D
:1042F000E368039A9B1AAB42F2DCEBE7002504F17A
:104300001909F5E7002BACD1037884F8423004F1A9
:1043100042056CE74D6000085E60000810B5431E62
:104320000A44914200D110BD11F8014B03F8014F2E
:10433000F7E7884210B501EB020307D8421E994205
:104340000AD011F8014B02F8014FF8E78342F5D982
:104350008118D21AD34200D110BD13F8014D01F8D3
:10436000014DF7E738B50546002945D051F8043C22
:104370000C1F002BB8BFE41800F0D2F81F4A1368D6
:10438000104633B9636014602846BDE8384000F039
:10439000C8B8A3420CD921686218934204BF1A68B6
:1043A0005B68636004BF521822600460ECE7134648
:1043B0005A680AB1A242FAD919685818A0420BD11A
:1043C00020680144581882421960DDD11068526893
:1043D0005A6001441960D7E702D90C232B60D3E758
:1043E000206821188A4204BF11685268626004BFC5
:1043F000091821605C60C7E738BD00BF6803002072
:1044000070B5CD1C25F0030508350C2D38BF0C25E3
:10441000002D064601DBA94203D90C23336000209E
:1044200070BD00F07DF8214A1468214691B9204CF6
:1044300023681BB9304600F063F8206029463046F7
:1044400000F05EF8431C24D10C233360304600F0AA
:1044500068F8E4E70B685B1B18D40B2B0FD90B60D3
:10446000CD50CC18304600F05CF804F10B00231D51
:1044700020F00700C31AD3D05A42E250D0E78C4252
:104480004B6816BF636013600C46EBE70C46496847
:10449000CCE7C41C24F00304A04205D0211A304606
:1044A00000F02EF80130CFD02560DBE76803002054
:1044B0006C030020F8B5074614460E4621B9114694
:1044C000BDE8F840FFF79CBF22B9FFF74BFF254638
:1044D0002846F8BD00F026F8A0420FD22146384603
:1044E000FFF78EFF05460028F2D031462246FFF73F
:1044F00015FF31463846FFF735FFE9E73546E7E770
:1045000038B5064C0023054608462360FFF76AFBD2
:10451000431C02D1236803B12B6038BDEC0400209A
:104520007047704751F8043C181F002BBCBF0B5854
:10453000C0187047F8B500BFF8BC08BC9E4670476D
:0C454000F8B500BFF8BC08BC9E467047F0
:10454C00000000000000000000000000000000005F
:10455C00000000000000000000000000000000004F
:10456C00000000000000000000000000000000003F
:10457C00000000000000000000000000000000002F
:10458C00000000000000000000000000000003809C
:10459C000003800003800003800003800003800080
:1045AC000380000380000380000100000100000074
:1045BC0000000000000380000380000000000000E9
:1045CC0000000000000000000000000000000000DF
:1045DC000000000000000000000E70000E70000EC5
:1045EC0070000420000420000420000420000000BF
:1045FC0000000000000000000000000000000000AF
:10460C00000000000000000000000000000000009E
:10461C000000000000000000000000000000066028
:10462C00000660000660000660000660003FF800AF
:10463C003FF8000660000CC0003FF8003FF8000C8B
:10464C00C0000CC0000CC0000CC0000CC00000006E
:10465C00000000000000000000000000000000004E
:10466C0000000001800001800007B0000FF000186E
:10467C0070001870001C00000F800007E00000F0B4
:10468C00001830001C30001C70001FE0001BC00024
:10469C00018000018000018000018000000000000A
:1046AC000000000000000000000000000000078077
:1046BC00000FC0001CE0001860001860001CE00037
:1046CC000FF80007E0001FF000073800061800067E
:1046DC00180007380003F00001E0000000000000A3
:1046EC0000000000000000000000000000000000BE
:1046FC0000000000000000000000000003F00007B4
:10470C00F0000C60000C00000C000006000007001C
:10471C00000F9C001DFC0018F0001870000FFC002E
:10472C0007DC00000000000000000000000000009A
:10473C00000000000000000000000000000000006D
:10474C0000038000038000038000010000010000D2
:10475C00010000010000000000000000000000004B
:10476C00000000000000000000000000000000003D
:10477C00000000000000000000000000000000002D
:10478C00000000000000001800003800007000005D
:10479C00F00000E00000E00001C00001C00001C01A
:1047AC000001C00001C00001C00000E00000E000FA
:1047BC0000700000700000380000180000000000BD
:1047CC0000000000000000000000000000001800C5
:1047DC00001C00000E00000E000007000007000087
:1047EC00038000038000038000038000038000032B
:1047FC0080000700000700000F00000E00001C00E6
:10480C000018000000000000000000000000000084
:10481C000000000000000180000180000180001DEC
:10482C00B8001FF80007E00003C00003C0000660DA
:10483C000006600000000000000000000000000006
:10484C00000000000000000000000000000000005C
:10485C00000000000000000000000000000000004C
:10486C000000000001800001800001800001800038
:10487C000180003FFC003FFC000180000180000132
:10488C00800001800001800000000000000000009A
:10489C00000000000000000000000000000000000C
:1048AC0000000000000000000000000000000000FC
:1048BC0000000000000000000000000000000000EC
:1048CC000000000000000000000000E00000C0003C
:1048DC0001C0000180000180000300000300000003
:1048EC0000000000000000000000000000000000BC
:1048FC0000000000000000000000000000000000AC
:10490C000000001FF8001FF800000000000000006D
:10491C00000000000000000000000000000000008B
:10492C00000000000000000000000000000000007B
:10493C00000000000000000000000000000000006B
:10494C00000000000000000000000000000000005B
:10495C000000000000000000000003C00003C000C5
:10496C0003C0000000000000000000000000000078
:10497C0000000000000000000018000018000038C3
:10498C000000300000700000600000600000C000FB
:10499C0000C000018000018000030000030000063D
:1049AC0000000600000E00000C00001C00001800A7
:1049BC0000180000000000000000000000000000D3
:1049CC0000000000000003C00007E0000C30000CE9
:1049DC0030001818001818001818001818001818AB
:1049EC00001818001818000C30000C300007E000FC
:1049FC0003C00000000000000000000000000000E8
:104A0C00000000000000000000000000000000801A
:104A1C00000780001F80001D8000018000018000C5
:104A2C0001800001800001800001800001800001F4
:104A3C0080000180001FF8001FF80000000000003B
:104A4C00000000000000000000000000000000005A
:104A5C0000000000000007C0001FF00038300030DC
:104A6C00180030180000180000300000600001C071
:104A7C00000380000600000C00001800003FF80046
:104A8C003FF80000000000000000000000000000E3
:104A9C00000000000000000000000000000003C047
:104AAC00000FE0000C7000003000003000006000CF
:104ABC0003C00003E00000700000180000180000A4
:104ACC0018001838001FF0000FC000000000000094
:104ADC0000000000000000000000000000000000CA
:104AEC0000000000000000E00001E00001E0000315
:104AFC0060000660000660000C60000C600018602E
:104B0C00003060003FF8003FF80000600003F80040
:104B1C0003F800000000000000000000000000008E
:104B2C0000000000000000000000000000001FF06A
:104B3C00001FF0001800001800001800001BC00037
:104B4C001FF0001C300000180000180000180000B6
:104B5C0018003030003FF0000FC0000000000000D3
:104B6C000000000000000000000000000000000039
:104B7C0000000000000000F80003F8000700000E21
:104B8C0000000C00001800001BC0001FF0001C30BF
:104B9C00001818001818001818000C38000FF00036
:104BAC0003E0000000000000000000000000000016
:104BBC0000000000000000000000000000001FF8D2
:104BCC00001FF800181800183800003000003000E2
:104BDC0000700000600000600000E00000C00000F9
:104BEC00C00001C000018000018000000000000036
:104BFC0000000000000000000000000000000000A9
:104C0C0000000000000007E0000FF0001C38001846
:104C1C0018001818000C300007E00007E0000C30FA
:104C2C00001818001818001818001C38000FF00095
:104C3C0007E0000000000000000000000000000081
:104C4C00000000000000000000000000000007C091
:104C5C00000FF0001C30001818001818001818006D
:104C6C000C38000FF80003D80000180000300000CA
:104C7C00700000E0001FC0001F00000000000000DA
:104C8C000000000000000000000000000000000018
:104C9C000000000000000000000000000000000008
:104CAC00000003C00003C00003C0000000000000AF
:104CBC000000000000000000000003C00003C00062
:104CCC0003C0000000000000000000000000000015
:104CDC0000000000000000000000000000000000C8
:104CEC000000000000000000000000F00000F000D8
:104CFC0000F00000000000000000000000000000B8
:104D0C00E00001C0000180000180000300000200EF
:104D1C000000000000000000000000000000000087
:104D2C00000000000000000000000000001C00005B
:104D3C003C0000F00003C0000F00003C0000F0003D
:104D4C00003C00000F000003C00000F000003C001D
:104D5C00001C00000000000000000000000000002B
:104D6C000000000000000000000000000000000037
:104D7C00000000000000000000000000007FFC00AC
:104D8C007FFC000000000000007FFC007FFC0000A6
:104D9C000000000000000000000000000000000007
:104DAC0000000000000000000000000000000000F7
:104DBC0000000000000000000000000070000078FF
:104DCC0000001E000007800001E000007800001EBB
:104DDC000000780001E0000780001E000078000051
:104DEC007000000000000000000000000000000047
:104DFC0000000000000000000000000000000000A7
:104E0C000007C0000FE000187000183000183000C8
:104E1C0000700000E00003C00003800003000000ED
:104E2C000000000000070000070000000000000068
:104E3C000000000000000000000000000000000066
:104E4C0000000000000003E00007F0000E38000C2A
:104E5C00180018780018F80019D80019980019983B
:104E6C000019980018F8001878001800000C0000C1
:104E7C000E180007F80003E000000000000000001E
:104E8C000000000000000000000000000000000016
:104E9C00001F80001FC00001C00003600003600001
:104EAC000630000630000C30000FF8001FF8001818
:104EBC000C00300C00FC7F00FC7F000000000000A8
:104ECC0000000000000000000000000000000000D6
:104EDC000000000000000000007FE0007FF00018E0
:104EEC0038001818001818001838001FF0001FF8A8
:104EFC0000181C00180C00180C00180C007FF8008F
:104F0C007FF0000000000000000000000000000026
:104F1C000000000000000000000000000000000085
:104F2C000003EC000FFC001C1C00180C00300C00E3
:104F3C00300000300000300000300000300000185D
:104F4C000C001C1C000FF80003F000000000000017
:104F5C000000000000000000000000000000000045
:104F6C000000000000000000007FC0007FF000186F
:104F7C003800181800180C00180C00180C00180C2D
:104F8C0000180C00180C001818001838007FF000DE
:104F9C007FE00000000000000000000000000000A6
:104FAC0000000000000000000000000000000000F5
:104FBC00007FF8007FF800181800181800199800E6
:104FCC001980001F80001F8000198000199800189C
:104FDC0018001818007FF8007FF80000000000008F
:104FEC0000000000000000000000000000000000B5
:104FFC000000000000000000003FFC003FFC000C23
:10500C000C000C0C000CCC000CC0000FC0000FC02E
:10501C00000CC0000CC0000C00000C00003FC000D5
:10502C003FC0000000000000000000000000000075
:10503C000000000000000000000000000000000064
:10504C000003EC000FFC001C1C00180C00300C00C2
:10505C0030000030000030FE0030FE00300C003814
:10506C000C001C1C000FFC0003F0000000000000F2
:10507C000000000000000000000000000000000024
:10508C000000000000000000007E7E007E7E001804
:10509C0018001818001818001818001FF8001FF82E
:1050AC00001818001818001818001818007E7E0038
:1050BC007E7E0000000000000000000000000000E8
:1050CC0000000000000000000000000000000000D4
:1050DC00001FF8001FF80001800001800001800013
:1050EC00018000018000018000018000018000012E
:1050FC0080000180001FF8001FF800000000000075
:10510C000000000000000000000000000000000093
:10511C0000000000000000000007FE0007FE000079
:10512C003000003000003000003000003000303023
:10513C00003030003030003030003060003FE00094
:10514C000F800000000000000000000000000000C4
:10515C000000000000000000000000000000000043
:10516C00007F3E007F3E0018300018600018C00021
:10517C001980001B80001FC0001CE0001870001874
:10518C0030001838007F1F007F1F00000000000057
:10519C000000000000000000000000000000000003
:1051AC000000000000000000007F80007F80000CE9
:1051BC0000000C00000C00000C00000C00000C00A7
:1051CC00000C0C000C0C000C0C000C0C007FFC00F8
:1051DC007FFC000000000000000000000000000048
:1051EC0000000000000000000000000000000000B3
:1051FC0000F00F00F81F00381C003C3C003C3C0049
:10520C00366C00366C0033CC0033CC00318C003063
:10521C000C00300C00FE7F00FE7F00000000000040
:10522C000000000000000000000000000000000072
:10523C0000000000000000000078FE0078FE001C5A
:10524C0018001E18001F18001B18001B980019D8F6
:10525C000018D80018F8001878001838007F1800CB
:10526C007F1800000000000000000000000000009B
:10527C000000000000000000000000000000000022
:10528C000003C0000FF0001C3800181800381C0078
:10529C00300C00300C00300C00300C00381C0018A6
:1052AC0018001C38000FF00003C0000000000000C4
:1052BC0000000000000000000000000000000000E2
:1052CC000000000000000000003FF0003FF8000C60
:1052DC001C000C0C000C0C000C0C000C18000FF833
:1052EC00000FE0000C00000C00000C00003FC000A0
:1052FC003FC00000000000000000000000000000A3
:10530C000000000000000000000000000000000091
:10531C000003C0000FF0001C3800181800381C00E7
:10532C00300C00300C00300C00300C00381C001815
:10533C0018001C38000FF00007C00007CC000FFC51
:10534C00000C38000000000000000000000000000D
:10535C000000000000000000007FE0007FF000185B
:10536C0038001818001818001838001FF0001FC05B
:10537C000018E0001870001830001838007F1E006C
:10538C007F0E000000000000000000000000000084
:10539C000000000000000000000000000000000001
:1053AC000007D8000FF8001C380018180018180057
:1053BC001E00000FC00003F0000078001818001841
:1053CC0018001C38001FF0001BE00000000000005B
:1053DC0000000000000000000000000000000000C1
:1053EC000000000000000000003FFC003FFC00310A
:1053FC008C00318C00318C00318C000180000180DC
:10540C00000180000180000180000180000FF0008D
:10541C000FF0000000000000000000000000000081
:10542C000000000000000000000000000000000070
:10543C00007E7E007E7E00181800181800181800D8
:10544C001818001818001818001818001818001848
:10545C0018000C30000FF00003C00000000000002A
:10546C000000000000000000000000000000000030
:10547C000000000000000000007F7F007F7F00180C
:10548C000C000C18000C18000C180006300006302C
:10549C000003600003600003600001C00001C00055
:1054AC000080000000000000000000000000000070
:1054BC0000000000000000000000000000000000E0
:1054CC0000FE3F80FE3F8030060030060030860034
:1054DC0019CC0019CC001B6C001B6C001E7C000E40
:1054EC0038000E38000C18000C18000000000000EA
:1054FC0000000000000000000000000000000000A0
:10550C000000000000000000007E7E007E7E00187F
:10551C0018000C300006600003C000018000018000
:10552C000003C0000660000C30001818007E7E00DE
:10553C007E7E000000000000000000000000000063
:10554C00000000000000000000000000000000004F
:10555C00007C7E007C7E001818000C300006600079
:10556C0006600003C0000180000180000180000182
:10557C0080000180000FF0000FF000000000000020
:10558C00000000000000000000000000000000000F
:10559C000000000000000000001FF8001FF80018B9
:1055AC00180018300018600018C0000180000300BB
:1055BC00000618000C18001818003018003FF800EE
:1055CC003FF8000000000000000000000000000098
:1055DC00000000000000000000000000000001F0CE
:1055EC000001F000018000018000018000018000BA
:1055FC000180000180000180000180000180000119
:10560C00800001800001800001800001800001F019
:10561C000001F0000000000000000000000000008D
:10562C001800001800001C00000C00000E00000602
:10563C000000060000030000030000018000018050
:10564C000000C00000C0000060000060000070009E
:10565C0000300000380000180000180000000000A6
:10566C0000000000000000000000000000000F809F
:10567C00000F80000180000180000180000180008B
:10568C000180000180000180000180000180000188
:10569C0080000180000180000180000180000F80EB
:1056AC00000F80000000000000000000000000005F
:1056BC0000000000800001C00003E000077000063D
:1056CC0030000C1800180C00100400000000000042
:1056DC0000000000000000000000000000000000BE
:1056EC0000000000000000000000000000000000AE
:1056FC00000000000000000000000000000000009E
:10570C00000000000000000000000000000000008D
:10571C00000000000000000000000000000000007D
:10572C00000000000000000000000000000000006D
:10573C0000000000000000000000FFFF00FFFF0061
:10574C0000000003000003800000E0000060000087
:10575C00000000000000000000000000000000003D
:10576C00000000000000000000000000000000002D
:10577C00000000000000000000000000000000001D
:10578C00000000000000000000000000000000000D
:10579C00000000000000000000000FC0001FE0002F
:1057AC0000300000300007F0001FF00038300030EF
:1057BC0030003070001FFC000FBC00000000000027
:1057CC0000000000000000000000000000000000CD
:1057DC00000000000000780000780000180000189D
:1057EC0000001BE0001FF8001C1800180C00180C1F
:1057FC0000180C00180C00180C001C18007FF80086
:10580C007BE0000000000000000000000000000031
:10581C00000000000000000000000000000000007C
:10582C000000000000000000000003EC000FFC0072
:10583C001C1C00380C00300C00300000300000380C
:10584C000C001C1C000FF80003F00000000000000E
:10585C00000000000000000000000000000000003C
:10586C000000000000000078000078000018000024
:10587C00180007D8001FF80018380030180030182E
:10588C00003018003018003018001838001FFE00C7
:10589C0007DE000000000000000000000000000017
:1058AC0000000000000000000000000000000000EC
:1058BC000000000000000000000007E0001FF800DE
:1058CC00181800300C003FFC003FFC00300000308A
:1058DC000000180C001FFC0007F000000000000086
:1058EC0000000000000000000000000000000000AC
:1058FC0000000000000001FC0003FC000600000694
:10590C0000003FF8003FF80006000006000006000B
:10591C00000600000600000600000600003FF00034
:10592C003FF000000000000000000000000000003C
:10593C00000000000000000000000000000000005B
:10594C000000000000000000000007DE001FFE0049
:10595C00183800301800301800301800301800309B
:10596C0018001838001FF80007D80000180000189D
:10597C00000038000FF0000FC00000000000000015
:10598C0000000000000078000078000018000018EB
:10599C0000001BE0001FF0001C380018180018183D
:1059AC00001818001818001818001818007E7E002F
:1059BC007E7E0000000000000000000000000000DF
:1059CC00000000000000000000000000000001804A
:1059DC00000180000000000000001F80001F8000FC
:1059EC000180000180000180000180000180000125
:1059FC0080000180003FFC003FFC00000000000024
:105A0C00000000000000000000000000000000008A
:105A1C0000000000000000C00000C00000000000FA
:105A2C0000001FF0001FF0000030000030000030BC
:105A3C00000030000030000030000030000030006A
:105A4C000030000030000030000070001FE0001F2C
:105A5C0080000000000000000000000000003C007E
:105A6C00003C00000C00000C00000CF8000CF800CE
:105A7C000CC0000D80000F80000F00000F80000D87
:105A8C00C0000CE0003C7C003C7C000000000000EE
:105A9C0000000000000000000000000000000000FA
:105AAC000000000000001F80001F8000018000012A
:105ABC0080000180000180000180000180000180D5
:105ACC00000180000180000180000180003FFC008B
